:100000000C9446000C9465000C9465000C946500FB
:100010000C9465000C9465000C9465000C946500CC
:100020000C9465000C9465000C9465000C946500BC
:100030000C9465000C94DE000C9465000C94650033
:100040000C9465000C9465000C9465000C9465009C
:100050000C9465000C9465000C9465000C9465008C
:100060000C9465000C9465000C9465000C9465007C
:100070000C9465000C9465000C9465000C9465006C
:100080000C9465000C9465000C94650011241FBE4F
:10009000CFEFD0E4DEBFCDBF11E0A0E0B1E0E6EEEF
:1000A000F7E000E00BBF02C007900D92A431B1074A
:1000B000D9F721E0A4E1B1E001C01D92A133B2075C
:1000C000E1F70E94A6030C94F1030C940000CF9377
:1000D000DF9300D01F92CDB7DEB789837B836A831D
:1000E00089818A3031F48A819B81BC018DE00E9434
:1000F000670080EC90E0FC018081882F90E08072A6
:100100009927892BB1F386EC90E02981FC012083AB
:1001100080E090E00F900F900F90DF91CF910895C5
:10012000CF93DF93CDB7DEB781E890E02BE0FC0101
:10013000208388E890E02DE730E0FC0131832083C4
:100140008FE690E022E0FC01208384E890E0FC014F
:100150001182108280910E0190910F01A0911001E7
:10016000B09111018093150190931601A09317018E
:10017000B09318018FE590E02FE530E0F901208180
:100180002068FC0120830000DF91CF910895CF9378
:10019000DF93CDB7DEB781E890E0FC01108200006C
:1001A000DF91CF910895CF93DF93CDB7DEB781E094
:1001B000809314010000DF91CF9108951F920F9258
:1001C00000905F000F92112400905B000F922F931C
:1001D0003F934F935F936F937F938F939F93AF93CF
:1001E000BF93EF93FF93CF93DF93CDB7DEB78091AB
:1001F000150190911601A0911701B0911801019776
:10020000A109B1098093150190931601A0931701DC
:10021000B09318018091150190911601A0911701DA
:10022000B0911801892B8A2B8B2B91F40E94D3005B
:1002300080910E0190910F01A0911001B0911101D8
:100240008093150190931601A0931701B0931801A4
:100250000000DF91CF91FF91EF91BF91AF919F91FE
:100260008F917F916F915F914F913F912F910F905F
:1002700000925B000F9000925F000F901F90189506
:10028000CF93DF9300D000D0CDB7DEB769837A83F8
:100290008B839C8389819A81AB81BC8180930E0181
:1002A00090930F01A0931001B093110180910E0162
:1002B00090910F01A0911001B0911101809315014F
:1002C00090931601A0931701B093180100000F90AE
:1002D0000F900F900F90DF91CF910895CF93DF9300
:1002E000CDB7DEB78091210190912201009719F0DE
:1002F000019741F05DC081E090E0909322018093EE
:1003000021015DC080911C0190911D018C329140B2
:1003100051F080911C0190911D01019690931D0157
:1003200080931C013EC080911C0190911D018C3274
:100330009140B9F580912B0190912C01892B69F4A2
:1003400081E08093190180912B0190912C010196FD
:1003500090932C0180932B0120C080912B019091D0
:100360002C01019769F482E08093190180912B019F
:1003700090912C01019690932C0180932B010DC03C
:1003800080912B0190912C01029739F484E08093A5
:10039000190110922C0110922B0110921D01109244
:1003A0001C0181E090E0909322018093210107C01D
:1003B00081E090E0909322018093210100000000F1
:1003C0000000DF91CF910895CF93DF93CDB7DEB7D3
:1003D00080911E0190911F01009719F0019741F043
:1003E00034C081E090E090931F0180931E0134C0DF
:1003F00080912D0190912E01883E934051F0809183
:100400002D0190912E01019690932E0180932D0144
:1004100015C080912D0190912E01883E934071F47A
:1004200080911A01882321F488E080931A0102C088
:1004300010921A0110922E0110922D0181E090E08D
:1004400090931F0180931E0107C081E090E090937C
:100450001F0180931E01000000000000DF91CF917A
:100460000895CF93DF93CDB7DEB7809125019091AA
:1004700026018130910589F08130910538F0823074
:10048000910541F1039709F46EC0A6C081E090E0A8
:100490009093260180932501A6C08091200184308D
:1004A00081F481E090E0909324018093230180E126
:1004B00080931B0182E090E09093260180932501B8
:1004C00092C010921B0181E090E0909326018093EE
:1004D000250189C080E180931B01809123019091C7
:1004E0002401019759F4109224011092230183E012
:1004F00090E0909326018093250175C080912001A2
:10050000843031F520912F0130913001809112011A
:10051000909113012817390781F080912F01909154
:10052000300101969093300180932F0182E090E09A
:10053000909326018093250156C0109230011092AD
:100540002F0183E090E090932601809325014BC01A
:100550001092300110922F0181E090E090932601DB
:100560008093250140C010921B01809120018430AE
:1005700031F520912F01309130018091120190913D
:1005800013012817390781F080912F0190913001D4
:1005900001969093300180932F0183E090E0909337
:1005A0002601809325011FC01092300110922F0167
:1005B00082E090E0909326018093250114C0109270
:1005C000300110922F0110921B0181E090E0909376
:1005D00026018093250107C081E090E090932601D9
:1005E00080932501000000000000DF91CF91089565
:1005F000CF93DF93CDB7DEB78091290190912A0187
:10060000009719F0019741F01AC081E090E09093B3
:100610002A01809329011AC085E290E030911901E6
:1006200020911A01322B20911B01232BFC012083E6
:1006300081E090E090932A018093290107C081E036
:1006400090E090932A0180932901000000000000AF
:10065000DF91CF910895CF93DF93CDB7DEB780912F
:100660002701909128018130910509F448C081301B
:10067000910518F0029741F05CC082E090E0909301
:100680002801809327015DC0809120018230B1F460
:100690008091120190911301069749F08091120107
:1006A000909113010196909313018093120181E0C0
:1006B00090E0909328018093270143C0809120010E
:1006C0008130B1F48091120190911301892B49F08E
:1006D00080911201909113010197909313018093DF
:1006E000120181E090E0909328018093270129C0B6
:1006F00082E090E0909328018093270122C08091AE
:100700002001813021F080912001823039F481E094
:1007100090E0909328018093270112C080912001DE
:10072000882371F482E090E0909328018093270160
:1007300007C082E090E0909328018093270101C0D8
:10074000000000000000DF91CF910895CF93DF9368
:10075000CDB7DEB781E290E0FC01108282E290E04A
:100760002FEFFC01208384E290E02FEFFC01208337
:1007700085E290E0FC01108210922201109221018A
:1007800010921F0110921E01109226011092250155
:1007900010922A011092290110922801109227012B
:1007A00061E070E080E090E00E9440010E949000D3
:1007B00080E290E0FC0180818095809320010E947E
:1007C0002B030E946E010E94E4010E9431020E94EC
:1007D000F8020000809114018823E1F310921401C3
:0607E000E7CFF894FFCF03
:1007E6000000000200000000670000000000010099
:0407F60000000100FE
:00000001FF
